{
  "_format": "hh-sol-artifact-1",
  "contractName": "TokeSwap",
  "sourceName": "contracts/TokeSwap.sol",
  "abi": [
    {
      "inputs": [
        {
          "internalType": "contract DEXToken",
          "name": "_token",
          "type": "address"
        }
      ],
      "stateMutability": "nonpayable",
      "type": "constructor"
    },
    {
      "inputs": [],
      "name": "ethToDexRatio",
      "outputs": [
        {
          "internalType": "uint256",
          "name": "",
          "type": "uint256"
        }
      ],
      "stateMutability": "view",
      "type": "function"
    },
    {
      "inputs": [
        {
          "internalType": "uint256",
          "name": "_amount",
          "type": "uint256"
        }
      ],
      "name": "swapDexToEth",
      "outputs": [],
      "stateMutability": "nonpayable",
      "type": "function"
    },
    {
      "inputs": [],
      "name": "swapEthToDex",
      "outputs": [],
      "stateMutability": "payable",
      "type": "function"
    },
    {
      "inputs": [],
      "name": "token",
      "outputs": [
        {
          "internalType": "contract DEXToken",
          "name": "",
          "type": "address"
        }
      ],
      "stateMutability": "view",
      "type": "function"
    }
  ],
  "bytecode": "0x6080604052600a60025534801561001557600080fd5b50604051610ae8380380610ae8833981810160405281019061003791906100fb565b600160008190555080600160006101000a81548173ffffffffffffffffffffffffffffffffffffffff021916908373ffffffffffffffffffffffffffffffffffffffff16021790555050610128565b600080fd5b600073ffffffffffffffffffffffffffffffffffffffff82169050919050565b60006100b68261008b565b9050919050565b60006100c8826100ab565b9050919050565b6100d8816100bd565b81146100e357600080fd5b50565b6000815190506100f5816100cf565b92915050565b60006020828403121561011157610110610086565b5b600061011f848285016100e6565b91505092915050565b6109b1806101376000396000f3fe60806040526004361061003f5760003560e01c8063293e71b4146100445780635277e57f1461004e578063c528081e14610079578063fc0c546a146100a2575b600080fd5b61004c6100cd565b005b34801561005a57600080fd5b506100636102d5565b6040516100709190610553565b60405180910390f35b34801561008557600080fd5b506100a0600480360381019061009b919061059f565b6102db565b005b3480156100ae57600080fd5b506100b7610514565b6040516100c4919061064b565b60405180910390f35b60026000541415610113576040517f08c379a000000000000000000000000000000000000000000000000000000000815260040161010a906106c3565b60405180910390fd5b600260008190555060006002543461012b9190610712565b9050600160009054906101000a900473ffffffffffffffffffffffffffffffffffffffff1673ffffffffffffffffffffffffffffffffffffffff166370a08231306040518263ffffffff1660e01b8152600401610188919061078d565b60206040518083038186803b1580156101a057600080fd5b505afa1580156101b4573d6000803e3d6000fd5b505050506040513d601f19601f820116820180604052508101906101d891906107bd565b81111561021a576040517f08c379a000000000000000000000000000000000000000000000000000000000815260040161021190610836565b60405180910390fd5b600160009054906101000a900473ffffffffffffffffffffffffffffffffffffffff1673ffffffffffffffffffffffffffffffffffffffff1663a9059cbb33836040518363ffffffff1660e01b8152600401610277929190610856565b602060405180830381600087803b15801561029157600080fd5b505af11580156102a5573d6000803e3d6000fd5b505050506040513d601f19601f820116820180604052508101906102c991906108b7565b50506001600081905550565b60025481565b60026000541415610321576040517f08c379a0000000000000000000000000000000000000000000000000000000008152600401610318906106c3565b60405180910390fd5b60026000819055506000600254826103399190610913565b90504781111561037e576040517f08c379a000000000000000000000000000000000000000000000000000000000815260040161037590610836565b60405180910390fd5b600160009054906101000a900473ffffffffffffffffffffffffffffffffffffffff1673ffffffffffffffffffffffffffffffffffffffff1663e1f21c673330856040518463ffffffff1660e01b81526004016103dd93929190610944565b600060405180830381600087803b1580156103f757600080fd5b505af115801561040b573d6000803e3d6000fd5b50505050600160009054906101000a900473ffffffffffffffffffffffffffffffffffffffff1673ffffffffffffffffffffffffffffffffffffffff166323b872dd3330856040518463ffffffff1660e01b815260040161046e93929190610944565b602060405180830381600087803b15801561048857600080fd5b505af115801561049c573d6000803e3d6000fd5b505050506040513d601f19601f820116820180604052508101906104c091906108b7565b503373ffffffffffffffffffffffffffffffffffffffff166108fc829081150290604051600060405180830381858888f19350505050158015610507573d6000803e3d6000fd5b5050600160008190555050565b600160009054906101000a900473ffffffffffffffffffffffffffffffffffffffff1681565b6000819050919050565b61054d8161053a565b82525050565b60006020820190506105686000830184610544565b92915050565b600080fd5b61057c8161053a565b811461058757600080fd5b50565b60008135905061059981610573565b92915050565b6000602082840312156105b5576105b461056e565b5b60006105c38482850161058a565b91505092915050565b600073ffffffffffffffffffffffffffffffffffffffff82169050919050565b6000819050919050565b600061061161060c610607846105cc565b6105ec565b6105cc565b9050919050565b6000610623826105f6565b9050919050565b600061063582610618565b9050919050565b6106458161062a565b82525050565b6000602082019050610660600083018461063c565b92915050565b600082825260208201905092915050565b7f5265656e7472616e637947756172643a207265656e7472616e742063616c6c00600082015250565b60006106ad601f83610666565b91506106b882610677565b602082019050919050565b600060208201905081810360008301526106dc816106a0565b9050919050565b7f4e487b7100000000000000000000000000000000000000000000000000000000600052601160045260246000fd5b600061071d8261053a565b91506107288361053a565b9250817fffffffffffffffffffffffffffffffffffffffffffffffffffffffffffffffff0483118215151615610761576107606106e3565b5b828202905092915050565b6000610777826105cc565b9050919050565b6107878161076c565b82525050565b60006020820190506107a2600083018461077e565b92915050565b6000815190506107b781610573565b92915050565b6000602082840312156107d3576107d261056e565b5b60006107e1848285016107a8565b91505092915050565b7f4e6f7420656e6f756768206c6971756964697479000000000000000000000000600082015250565b6000610820601483610666565b915061082b826107ea565b602082019050919050565b6000602082019050818103600083015261084f81610813565b9050919050565b600060408201905061086b600083018561077e565b6108786020830184610544565b9392505050565b60008115159050919050565b6108948161087f565b811461089f57600080fd5b50565b6000815190506108b18161088b565b92915050565b6000602082840312156108cd576108cc61056e565b5b60006108db848285016108a2565b91505092915050565b7f4e487b7100000000000000000000000000000000000000000000000000000000600052601260045260246000fd5b600061091e8261053a565b91506109298361053a565b925082610939576109386108e4565b5b828204905092915050565b6000606082019050610959600083018661077e565b610966602083018561077e565b6109736040830184610544565b94935050505056fea2646970667358221220724e1fbbc5ead5a2dbdbd6304a3efd4a0cd29730117ffffae1368094afda26cc64736f6c63430008090033",
  "linkReferences": {},
  "deployedLinkReferences": {}
}